:020000040800F2
:100000008048002009030008D75C00081751000849
:10001000D55C0008710C0008497900080000000058
:10002000000000000000000000000000490200087D
:100030001B0E000800000000A5020008AB6C0008C1
:1000400023030008230300082303000823030008F8
:1000500023030008230300082303000823030008E8
:1000600023030008230300082303000823030008D8
:1000700023030008230300082303000823030008C8
:10008000230300082303000899070008230300083E
:10009000750C000823030008230300084D0F000817
:1000A00023030008616D00082303000823030008F0
:1000B0002303000823030008230300082303000888
:1000C0002303000823030008230300082303000878
:1000D0002303000895760008A17600082303000892
:1000E0002303000823030008230300082303000858
:1000F0002303000823030008230300082303000848
:1001000023030008230300086D6D00082303000883
:10011000230300082303000823030008796D000867
:100120002303000823030008230300082303000817
:100130002303000800000000000000002303000863
:1001400023030008A50C000823030008230300086C
:10015000230300082303000823030008AD760008EA
:1001600023030008230300082303000823030008D7
:100170002303000823030008000000000000000023
:10018000230300082303000800F002F800F04CF8F5
:100190000AA090E8000C82448344AAF10107DA45E2
:1001A00001D100F041F8AFF2090EBAE80F0013F0E8
:1001B000010F18BFFB1A43F001031847045C02004B
:1001C000245C02000A4410F8014B14F00F0508BF2C
:1001D00010F8015B240908BF10F8014B6D1E05D013
:1001E00010F8013B6D1E01F8013BF9D1641E03D0EC
:1001F000641E01F8015BFBD19142E4D3704700001B
:100200000023002400250026103A28BF78C1FBD81F
:10021000520728BF30C148BF0B6070471FB50AF0B6
:10022000D0FC1FBD10B510BD00F0E5F91146FFF779
:10023000F5FF08F0A5FA00F003FA03B4FFF7F2FFA8
:1002400003BC00F007FA00002C4B19680868B0E8FE
:10025000F04F80F30988BFF36F8F4FF0000080F3F9
:10026000118870470000000008480068006880F3AB
:1002700008884FF0000080F3148862B661B6BFF3BF
:100280004F8FBFF36F8F00DF00BF00BF08ED00E0AE
:10029000DFF80C00016841F470010160704700BF95
:1002A00088ED00E0EFF30980BFF36F8F134B1A68FE
:1002B0001EF0100F08BF20ED108A20E9F04F1060EB
:1002C00009B44FF0500080F31188BFF34F8FBFF394
:1002D0006F8F09F05BF94FF0000080F3118809BCC3
:1002E00019680868B0E8F04F1EF0100F08BFB0ECB6
:1002F000108A80F30988BFF36F8F704728000020B1
:10030000EFF305807047000009488047094800471F
:10031000FEE7FEE7FEE7FEE7FEE7FEE7FEE7FEE7B5
:10032000FEE7FEE704480549054A064B7047000012
:10033000516D00088901000880420020804800209B
:10034000804400208044002053EA020C00F06980C1
:100350002DE9F04B4FF00006002B1FBFB3FA83F5D9
:1003600003FA05F424FA05F65E4012BF1643B2FA0A
:1003700082F502FA05F4C5F120051EBF22FA05FC3C
:1003800044EA0C04203556EA044C4FEA144418BFE2
:10039000641C4FF000084FF00009904271EB030C11
:1003A00039D3002919BFB1FA81F701FA07F6B0FA7B
:1003B00080F700FA07F6C7F120071EBF20FA07FCF6
:1003C00046EA0C062037B6FBF4FCA7EB0507103F06
:1003D00007F01F0BCBF120060CFA0BFB2CFA06F6EC
:1003E00044BFB3460026202FA4BF5E464FF0000B4B
:1003F0005BEA060C08BF4FF0010B19EB0B09ABFBD6
:10040000027C48EB0608C01B06FB02CC0BFB03CCAE
:1004100071EB0C01C1E70B46024641464846BDE878
:10042000F08B13B54FF000004FF00001AFF30080E8
:10043000BDE81C407047032A40F2308010F0030CE6
:1004400000F0158011F8013BBCF1020F624498BF27
:1004500011F801CB00F8013B38BF11F8013BA2F1C4
:10046000040298BF00F801CB38BF00F8013B11F03F
:10047000030300F02580083AC0F0088051F8043BDF
:10048000083A51F804CBA0E80810F5E7121D5CBF4C
:1004900051F8043B40F8043BAFF30080D20724BF7F
:1004A00011F8013B11F801CB48BF11F8012B24BF13
:1004B00000F8013B00F801CB48BF00F8012B704762
:1004C00010B5203AC0F00B80B1E81850203AA0E8EF
:1004D0001850B1E81850A0E81850BFF4F5AF5FEA23
:1004E000027C24BFB1E81850A0E8185044BF18C9D6
:1004F00018C0BDE810405FEA827C24BF51F8043B7D
:1005000040F8043B08BF7047D20728BF31F8023BD0
:1005100048BF11F8012B28BF20F8023B48BF00F864
:10052000012B704702F0FF0343EA032242EA024232
:1005300000F037B84FF0000200B5134694469646D7
:10054000203922BFA0E80C50A0E80C50B1F12001E6
:10055000BFF4F7AF090728BFA0E80C5048BF0CC094
:100560005DF804EB890028BF40F8042B08BF7047F2
:1005700048BF20F8022B11F0804F18BF00F8012B64
:10058000704770477047704710B500F02FF800684B
:1005900010BD10B5044600F029F8046010BD4FF0FE
:1005A00000020429C0F0128010F0030C3FF4C4AF25
:1005B000CCF1040CBCF1020F18BF00F8012BA8BF4E
:1005C00020F8022BA1EB0C01FFF7B6BF5FEAC17C5C
:1005D00024BF00F8012B00F8012B48BF00F8012BC5
:1005E00070470000004870472042002000487047D4
:1005F0002042002070477546FFF7F4FFAE46050025
:100600006946534620F00700854618B020B5FFF72D
:1006100089FEBDE820404FF000064FF000074FF084
:1006200000084FF0000B21F00701AC46ACE8C00910
:10063000ACE8C009ACE8C009ACE8C0098D46704719
:1006400010B50446AFF300802046BDE81040FFF728
:10065000F4BD000001491820ABBEFEE726000200F1
:100660009FED241AB5EE002A45F2BC530021B7EEE7
:10067000004AC0F6020320EE010A30EE020ABDEE87
:10068000C01AB5EEC00A11EE100AF1EE10FA9FED95
:100690001A1AB8BF013802EE100AB8EEC22A30EEBC
:1006A000420A9FED162A20EE010ABDEEC01A11EE95
:1006B000100A30EE021A0246B1EB502F18BF00228A
:1006C00002EE102A03EB8203B1EB502F18BFB0EEFD
:1006D000410AB8EE421A93ED002A93ED013A30EE4A
:1006E000410A34EE401A20EE030A21EE021A31EEDE
:1006F000000A704783F9223E00000044000000C455
:100700009FED221A45F2BC530021B7EE004AC0F615
:10071000020320EE010ABDEEC01AB5EEC00A11EECA
:10072000100AF1EE10FA9FED1A1AB8BF013802EE66
:10073000100AB8EEC22A30EE420A9FED162A20EEC9
:10074000010ABDEEC01A11EE100A30EE021A02467E
:10075000B1EB502F18BF002202EE102A03EB8203E8
:10076000B1EB502F18BFB0EE410AB8EE421A93ED2C
:10077000002A93ED013A30EE410A34EE401A20EEA1
:10078000030A21EE021A31EE000A704783F9223E75
:1007900000000044000000C4014801F09FB80000C0
:1007A0007C01002010B504464B48416821F44031DB
:1007B000416041686268114341602068416821F4EA
:1007C0008071416020684168226941EA02214160EC
:1007D0002068416821F04071416020684168A2684A
:1007E000114341602068816821F4006181602068C4
:1007F0008168E26811438160A06A6FF07061C8424D
:100800002068816821F070618160206881680CD067
:10081000A26A114381602068816821F040518160A3
:1008200020688168E26A114301E021F04051816053
:100830002068816821F00201816020688168227E41
:1008400041EA4201816094F8200000283FD0606AAC
:10085000401E072804D94FF4F56120A007F00AFED6
:100860002068416841F4006141602068416821F4DA
:100870006041416020684168264B626A03EB423266
:10088000114341602068C16A21F47001C16220688F
:10089000C16AA28B204B03EB02521143C162206854
:1008A000816821F4007181602068816894F83020AB
:1008B00041EA422181602068816821F48061816081
:1008C00020688168626941EA8221816010BD2068E8
:1008D000416821F40061D4E7002301402E2E2F440B
:1008E0007269766572732F53544D3332463478787B
:1008F0005F48414C5F4472697665722F5372632F73
:1009000073746D3332663478785F68616C5F6164EC
:10091000632E630000E0FFFF0000F0FF2DE9F04FC1
:100920009A4B0D462DED068B044697B005AE0FCBC6
:1009300086E80F000020029003900490019011902F
:100940001290139010900C900D900E909FED909A35
:100950000F9095ED100AD5ED000A30EE600A84ED97
:10096000000AD5ED110A95ED011A70EEC10AC4ED29
:10097000010AF0EE000A07F0F5F9B0EE408A94EDB6
:10098000010AF0EE000A07F0EDF938EE000A07F070
:100990001BFD84ED020AB0EE408AD4ED000A94ED0E
:1009A000010A00F01BFB84ED050A95ED120AD5ED56
:1009B000020A30EE600ADFED778A20EE280A05F0A1
:1009C000EDF9DFED759A60EE290AC4ED030A94EDA6
:1009D000070AB4EEC08AF1EE10FA19D294ED081AA3
:1009E000B0EEE00AB4EEC10AF1EE10FA10D2012026
:1009F00084F85C005FF0000005EB8001401C81ED95
:100A0000189A0428F8DB17B0BDEC068BBDE8F08F10
:100A1000624901F1080091ED001A9FED610AB4EE00
:100A2000C18AF1EE10FA02D290ED001A0BE091EDBE
:100A3000011AB4EEC18AF1EE10FA02D290ED011A59
:100A400001E090ED021A574984ED101A84ED130A63
:100A5000B0EEE00A10EE100A884206DAB1EE080A9B
:100A600084ED090AB3EE090A11E010EE100A4E49AE
:100A7000884206DAB1EE040A84ED090A9FED4B0ABA
:100A800005E0B1EE000A84ED090A9FED490AF1EE96
:100A9000480A84ED0C0A04F14000B0EE490A05F062
:100AA000A9FB84ED040A94ED050AFFF7D9FDD4ED06
:100AB000040A20EE20AA94ED050A05F09DF9D4ED74
:100AC000040A04F1240020EE208A94ED030AF1EEDA
:100AD000400AB0EE490A05F08DFB84ED060A20EECF
:100AE000280ADFED340A00240DF1140B20EE209AC1
:100AF0000DF104080DF140090DF1300A0BEB8400F3
:100B000090ED000A20EE280A05F034FD08EB84077A
:100B100087ED000AFFF7A4FDF0EE4A0A09EB840610
:100B200049EE000AC6ED000A97ED000A05F064F9E7
:100B3000F0EE480A0AEB840749EE000AC7ED000A06
:100B4000D6ED00AAB0EE600AF0EE6A0A00F046FAAE
:100B500020EE290A05EB8406F0EE000A86ED1C0A59
:100B6000B0EE6A0A07F0FEF8F0EE40AA97ED000A30
:100B7000F0EE000A07F0F6F83AEE800A07F024FCDF
:100B8000641C86ED180A042CB8DB3CE72CAE000888
:100B90000000000035FA8E3CE12E65424001002045
:100BA0000000164400004040000070410000C842B0
:100BB00000000743856B70439FED190ADFED1A0AA9
:100BC00080ED120A9FED170A002180ED110AC0ED99
:100BD000140A80ED150A80ED160A80ED0A0A80EDF0
:100BE0000B0A80ED0D0A80ED0E0A80ED0F0A80EDF4
:100BF000000A80ED010A80ED020A80ED030A80ED13
:100C0000040AF2EE0E0AC0ED070AF0EE000AC0ED8B
:100C1000080A80ED050A80ED060A80F85C1070472E
:100C2000CDCC4C3F00000000000048449FED0F0A6F
:100C3000F3EE040A80ED0E0A80ED0F0A80ED000A43
:100C400080ED010A80ED020A80ED030A80ED040ABE
:100C5000C0ED070AF0EE040AC0ED080A80ED050AAF
:100C600080ED060A002180F85C107047000000004B
:100C7000FEE70000014801F0A1BB0000C401002014
:100C800010B507F045FD064801F0ACFE002805D17F
:100C9000BDE810400221024801F0F8B810BD000084
:100CA000C4010020014801F089BB0000EC010020D4
:100CB00010B507F049FD064801F094FE002805D163
:100CC000BDE810401021024801F0E0B810BD00005E
:100CD000EC0100200B4991ED000A0B4980ED000A60
:100CE00091ED000A094980ED010A91ED000A002109
:100CF00080ED020A9FED060A80ED170A80F8801049
:100D00007047000034010020380100203C01002021
:100D1000000000002DE9F04104462DED028B88B063
:100D20000020224B00900190029003900FCB04AD65
:100D30009FED208A85E80F0094ED000ADFED1E8A02
:100D400084ED100A94ED010A002584ED110A94ED5A
:100D5000020A6F4684ED120A9FED150A0DF1100884
:100D600084ED140A84ED150A84ED170A07EB85005B
:100D700004EB850690ED000A08EB850086ED180A65
:100D800090ED000A20EE080A05F0F4FB20EE280A98
:100D90006D1C042D86ED1C0AE8DB204600F00EF8E1
:100DA00008B0BDEC028BBDE8F08100003CAE00084D
:100DB0000000000035FA8E3CE12E654210B5044675
:100DC000012105F023FF0221204605F01FFF03212A
:100DD000204605F01BFF2046BDE81040042105F029
:100DE00015BF000010B5012390ED180A002200BFC6
:100DF00001EB8204D4ED080AF0EEE00AF4EEC00A3A
:100E0000F1EE10FA01D2012400E000242340521C2C
:100E1000042AEDDB80F8643010BD704710B503463E
:100E200000242146184600F07BF8641CE4B2022C32
:100E3000F7D300209FED080A094983ED0A0A9FEDC8
:100E4000070A83ED0B0A83F8300083F83100096844
:100E50004FF40040486210BD922FA43D35E7A7BD76
:100E60000C03002070B52A4B01EB810200EB8202DB
:100E70005B6A9EB24FF4004311B1012902D006E033
:100E8000244C00E0244C25686C6A6B62A4B2538841
:100E90005680A4F5004514805468F31A2DB21B0443
:100EA0002C441B0C546001D14FF6FF7300EE104A26
:100EB00000EB81040844F8EEC00A94ED0A0A90F8A9
:100EC000300020EE801A00EE905AF8EEE00A20EE94
:100ED000200ADFED120A60EE201A00EE903AB8EE1A
:100EE000602AC1EE820A60B1B1EE411A82ED021AA7
:100EF000B1EE400A82ED040AB1EE600A82ED030A07
:100F000070BD82ED021A82ED040AC2ED030A70BDC3
:100F1000001000400C0300205403002000247449FA
:100F200001EB810200EB8200002242604FF400409E
:100F300029B1012902D10349096848627047024971
:100F4000FAE70000540300200C03002010B54FF412
:100F5000807001F0D7FDBDE810404FF4007001F043
:100F6000D1BD72B6FEE7704710B5B5EEC00A2DEDE3
:100F7000028B10EE100A9FED188AF1EE10FA16D2CD
:100F800010F1814F0CD9BFEE001AC1EE000AB0EE8D
:100F9000600A04F05BFB30EE480ABDEC028B10BD2A
:100FA000B1EE400A04F052FBB1EE400AF5E7B0F1B1
:100FB0007E5F0ADDB7EE001AC1EE000AB0EE600AED
:100FC00004F044FB38EE400AE7E7BDEC028BBDE8D5
:100FD000104004F03BBB0000DB0FC93FF5EEC00A38
:100FE00010B5F1EE10FA07DD80EE201ABDE81040D2
:100FF000B0EE410AFFF7B8BFB5EEC00AF1EE10FA45
:101000000DDBF5EEC00AF1EE10FA08D280EE201AE0
:10101000B0EE410AFFF7A8FFDFED1A0A11E0B5EEC6
:10102000C00AF1EE10FA0FD2F5EEC00AF1EE10FA96
:101030000AD280EE201AB0EE410AFFF795FFDFEDED
:10104000120A30EE200A10BDB5EEC00AF1EE10FA19
:1010500007DDF5EEC00AF1EE10FA02D19FED0B0AA2
:1010600010BDB5EEC00AF1EE10FA07D2F5EEC00AD7
:10107000F1EE10FA02D19FED060A10BD9FED050AB0
:1010800010BD0000DB0F4940DB0F49C0DB0FC93F3B
:10109000DB0FC9BF0000000010B500230AE000BF4D
:1010A00031F83340844203D101EBC300406810BDE6
:1010B0005B1CDBB29342F3D3002010BD10B50023BC
:1010C0000AE000BF31F83340844203D101EBC30092
:1010D000406810BD5B1CDBB29342F3D3002010BD0F
:1010E00030B589B00025044600950195012902D04C
:1010F000022905D00AE06B4602AA0021114803E04C
:101100006B4602AA0121104801F0B8F8049804289F
:1011100016D00299206861F30A00206004982071BB
:10112000059800B10120607106986946C2B2A271AB
:10113000A56004F10800E560FFF7C2F909B030BD11
:101140000398EAE7C4010020EC0100202DE9F041FA
:10115000054631B1012907D002290AD003290CD054
:101160000FE0264C26480CE0244C2548241D8430F2
:1011700007E0224C2348083403E0204C21480C347B
:101180008430A37822780026EE2D09D1042A31D0AC
:10119000FF2B01D026700BE003780BB15B1E0370B0
:1011A0000423052A21D2DFE802F003050D142300F1
:1011B00001200CE0042D01D2267016E0E5700670C7
:1011C000022004E04570E07804280DD00320207050
:1011D0000BE0E178061D491EE1700278511C017098
:1011E0009555E078042800D12370A570BDE8F08102
:1011F000EE2DE1D105F070F8DEE70000E000002000
:10120000B0390020B83A002010B59FED2D0A2D4CC2
:10121000DFED2D0A2DED028B01689FED2C8AC1F3C5
:101220000741012918D0022927D0032936D00429E3
:101230000FD190ED021AC1EE001AC4ED0B1A90ED19
:10124000030A20EE200A05F095F920EE080A84ED45
:101250000F0ABDEC028B10BD90ED021AC1EE001A10
:10126000C4ED081A90ED030A20EE200A05F082F979
:1012700020EE080A84ED0C0AEBE790ED021AC1EEAD
:10128000001AC4ED091A90ED030A20EE200A05F0B9
:1012900071F920EE080A84ED0D0ADAE790ED021AE2
:1012A000C1EE001AC4ED0A1A90ED030A20EE200ADE
:1012B00005F060F920EE080A84ED0E0AC9E7000087
:1012C000A628943EC03B002035FA8E3CE12E6542B4
:1012D00004489FED051AD0ED020A00EEC10A04F0A1
:1012E0005DBD0000C03B002035FA8E3C10B5344C8B
:1012F0002021204601F08CFD0028F9D1F02000F0DB
:1013000061F8022008F08EF82021204601F080FDCF
:101310000028F9D1FE2000F055F8012008F082F8ED
:101320002021204601F074FD0028F9D1062150202B
:1013300000F086F8012008F075F82021204601F021
:1013400067FD0028F9D10121512000F079F8012032
:1013500008F068F82021204601F05AFD0028F9D154
:101360000021522000F06CF8012008F05BF82021E9
:10137000204601F04DFD0028F9D1F021532000F066
:101380005FF8012008F04EF82021204601F040FDD2
:101390000028F9D1E021542000F052F8012008F093
:1013A00041F82021204601F033FD0028F9D1F0203A
:1013B00000F008F8BDE81040012008F033B8000044
:1013C0000008024070B51C4E0546AAB0002210214C
:1013D000304601F049FD3622184913A8FFF770F88E
:1013E000164CE08EADF88200A06B2190A08FADF876
:1013F0008800E08FADF88A00112204F1400123A893
:10140000FFF75EF894F851008DF89D00606D28900C
:10141000482217A968461295FFF752F813AC94E8D2
:101420000F0005F023FB044601221021304601F095
:101430001BFD2AB0204670BD0000024014020020AF
:101440002DE9F041454F0D460646AAB00022102175
:10145000384601F009FD3622414913A8FFF730F85C
:101460003F4CE08EADF88200A06B2190A08FADF8CC
:101470008800E08FADF88A0004F14001112288460F
:1014800023A8FFF71DF894F851008DF89D00606DBA
:101490002890482217A968461296FFF711F80DF117
:1014A0004C0C9CE80F0005F0E1FA3622214613A807
:1014B000FFF706F8E08EADF88200A06B2190A08FB8
:1014C000ADF88800E08FADF88A001122414623A8CC
:1014D000FEF7F6FF94F851008DF89D00606D28909E
:1014E00000201290482217A96846FEF7E9FF0DF187
:1014F0004C0C9CE80F0005F0B9FA3622214613A8DF
:10150000FEF7DEFFE08EADF88200A06B2190A08F89
:10151000ADF88800E08FADF88A001122414623A87B
:10152000FEF7CEFF94F851008DF89D00606D289075
:10153000482217A968461295FEF7C2FF13AC94E83B
:101540000F0005F093FA012007F06CFF2AB038462F
:10155000BDE8F0410122102101F086BC00000240EC
:101560001402002010B5044604F0E6FE1B4884ED8A
:10157000010A406A1A494A884880821A087892B259
:1015800020B181ED050A0020087010BDD1ED050ADB
:10159000B6EE001A81ED050A70EE200A114960EEE0
:1015A000810AB0EEE00A10EE100A884201DCDFED9D
:1015B0000E0A01EE102ADFED0D1A94ED000AB8EEC6
:1015C000411A84ED050A20EE811AC1EE210AC4ED0C
:1015D000020A30EE200A84ED000A10BD001000401F
:1015E000A8000020CDCCCC3D0000000000247449B0
:1015F00070B59FED1F0A044680ED000A80ED050AD4
:1016000080ED020A80ED010A80ED030A9FED190AC0
:101610001E4D80ED060A9FED180A002280ED070A94
:101620009FED160A082180ED080A9FED150A80ED4E
:10163000090A9FED140A284684ED0A0A9FED120A52
:1016400084ED0B0A01F010FC012007F0EBFE0122F3
:10165000D102284601F008FC01220821284601F0A9
:1016600003FCFFF743FE2046BDE8704000F010B8D1
:10167000000000001531803FAAC5F435B950EC33A5
:101680009F51803F28134636CAA11A3400040240F5
:101690002DE9F041174C184F06462DED028B002521
:1016A0009FED138AE168A160786A80B2E060401A19
:1016B0006060304604F040FE6D1C642DF2DB0024B7
:1016C0004FF4FA75304604F037FE30EE088A0120F8
:1016D00007F0A8FE641CAC42F4DBDFED080A88EEDC
:1016E000200A86ED030ABDEC028BBDE8F081000004
:1016F00000000000A8000020001000400000FA4395
:1017000070470000F8B500260546009608680C46AC
:10171000122804D940F28B615DA006F0ABFE606830
:10172000401E0F2804D940F28C6159A006F0A2FE99
:10173000A06890B1012810D002280ED003280CD048
:1017400004280AD0052808D0062806D0072804D087
:1017500040F28D614EA006F08DFE95F83C00012808
:1017600019D0012085F83C00206807212A68092843
:1017700013D9D3680A3800EB400081408B43D36013
:101780002178A0680A3901EB410188402968CA68BC
:101790001043C86010E00220F8BD136900EB400060
:1017A00081408B4313612178A06801EB410188409F
:1017B00029680A691043086160681F21072813D24D
:1017C0002A68536B401E00EB800081408B435363BB
:1017D00021792088491E80B201EB81018840296867
:1017E0004A6B1043486327E02A680D2812D2136B16
:1017F000C01F00EB800081408B4313632179208858
:10180000C91F80B201EB8101884029680A6B10432F
:10181000086311E0D36A0D3800EB800081408B43F0
:10182000D362217920880D3980B201EB8101884093
:101830002968CA6A1043C86224492A6822488A4231
:1018400006D12268122A03D1426842F48002426023
:101850002A688A4218D12168102901D0112913D190
:10186000416841F400014160206810280CD11848FB
:1018700018490068B0FBF1F000EB8000400000E088
:10188000401E00900028FBD185F83C600020F8BD88
:101890002E2E2F447269766572732F53544D333256
:1018A000463478785F48414C5F4472697665722FA0
:1018B0005372632F73746D3332663478785F686166
:1018C0006C5F6164632E63000023014000200140CF
:1018D0002400002040420F007047704770B5044656
:1018E000006806684568207E30B1012804D040F2C7
:1018F000B74155A006F0BEFDE069401E0F2804D98F
:101900004FF4976150A006F0B5FD6069012807D03B
:1019100030B1022804D040F2B9414BA006F0AAFD34
:1019200016F0020F05F020012BD051B3206CC00639
:1019300003D4206C40F4007020642068816811F0AA
:10194000405F17D1217EA9B9C16A11F4700F02D08E
:10195000816849050ED4416821F020014160206C66
:1019600020F480702064206CC00403D4206C40F00C
:10197000010020642046FFF7AFFF21686FF01200DE
:10198000086016F0040F05F0800132D089B3206C96
:10199000C00603D4206C40F40050206420688168A5
:1019A00011F4401F1ED1816B11F4401F02D08168D9
:1019B000490517D44168490514D4816811F0405F86
:1019C00010D1217E71B9416821F080014160206C05
:1019D00020F480502064206CC00503D4206C40F0BB
:1019E000010020642046FFF78BFE21686FF00C0099
:1019F000086016F0010F05F040000FD070B12068AC
:101A00000068C0070AD0206C40F480302064204673
:101A100000F046F921686FF00100086016F0200F11
:101A200005F080610ED000290CD0606C40F00200FF
:101A3000606420686FF0200505602046FFF74DFFC9
:101A40002068056070BD00002E2E2F4472697665F7
:101A500072732F53544D3332463478785F48414C7B
:101A60005F4472697665722F5372632F73746D339E
:101A700032663478785F68616C5F6164632E6300FE
:101A80002DE9F04704004FF000057DD07249206831
:101A900088420AD07149884207D07149884204D0EF
:101AA0004FF4A1716FA006F0E5FC606868B1B0F575
:101AB000803F0AD0B0F5003F07D0B0F5403F04D0DA
:101AC00040F2431167A006F0D5FCA0684FF0807784
:101AD0004FF000784FF0407950B1B84208D04045FF
:101AE00006D0484504D04FF4A2715EA006F0C2FCB7
:101AF000206930B1012804D040F2451159A006F008
:101B0000B9FC207E30B1012804D04FF4A37155A058
:101B100006F0B0FC614EA06A80B3B8422ED04045BA
:101B20002CD048452AD0B0F1806F27D0B0F1A06FFB
:101B300024D0B0F1C06F21D0B0F1E06F1ED0B0F171
:101B4000006F1BD0B0F1106F18D0B0F1206F15D01E
:101B5000B0F1306F12D0B0F1406F0FD0B0F1506FD4
:101B60000CD0B0F1606F09D0B0F1706F06D0B04208
:101B700004D040F247113BA006F07CFCE06848B17D
:101B8000B0F5006F06D000E043E04FF4A47135A03B
:101B900006F070FCE069401E0F2804D940F249119C
:101BA00030A006F067FC94F8300030B1012804D072
:101BB0004FF4A5712BA006F05DFC6069012807D0E9
:101BC00030B1022804D040F24B1126A006F052FC9E
:101BD00094F8200030B1012804D04FF4A67121A060
:101BE00006F048FCA06AB0420FD0E06A68B1B0F1DC
:101BF000805F0AD0B0F1005F07D0B0F1405F04D041
:101C00004FF4A87117A006F035FC206C002618B11F
:101C100008E00120BDE8F087204600F043F8666444
:101C200084F83C60206CC00610D4206C20F48850EE
:101C300040F0020020642046FEF7B4FD6664206C8C
:101C400020F0020040F00100206400E0012584F84B
:101C50003C602846DEE700000020014000210140F2
:101C6000002201402E2E2F447269766572732F5325
:101C7000544D3332463478785F48414C5F44726942
:101C80007665722F5372632F73746D3332663478B6
:101C9000785F68616C5F6164632E63000100000F10
:101CA0007047000010B586B0044614216846FEF760
:101CB00041FC15492068884224D11448002102685B
:101CC00042F480720260006800F4807005900F4852
:101CD0001438026842F001020260006800F001005E
:101CE0000590022000900320CDE9010169460848D3
:101CF00000F014FF00220321122001F0ADF91220A0
:101D000001F078F906B010BD0020014044380240CF
:101D10000000024038B5002504460095007E30B131
:101D2000012804D040F2134143A006F0A3FBE06A6F
:101D300068B1B0F1805F0AD0B0F1005F07D0B0F1B8
:101D4000405F04D040F214413BA006F093FB94F8AE
:101D50003C00012807D0012084F83C0020688168FD
:101D6000C90702D011E0022038BD816841F00101AD
:101D700081603F483F490068B0FBF1F000EB400054
:101D800000E0401E00900028FBD120688168C90750
:101D900047D0216C40F20162914341F4807121648B
:101DA0004168490505D5216C21F4005141F4805169
:101DB0002164216CC90404D5616C21F006016164C1
:101DC00000E0656484F83C502B496FF02202026009
:101DD00020684268294B1A43426048682849C00677
:101DE000206806D0884224D1816811F0405F13D06A
:101DF0001FE08842F8D0234A904203D1D1F804234F
:101E0000D206F1D0204A904213D1D1F8041301F048
:101E10001F011029E8D30CE0816841F08041816006
:101E200007E0206C40F010002064606C40F001007E
:101E30006064002038BD00002E2E2F447269766544
:101E400072732F53544D3332463478785F48414C87
:101E50005F4472697665722F5372632F73746D33AA
:101E600032663478785F68616C5F6164632E63000A
:101E70002400002040420F00002301402000000405
:101E800000200140002101400022014070B590F87F
:101E900020600D4604460C48814204D94FF4D061BD
:101EA0000AA006F0E7FA012E07D0022E05D0606ADC
:101EB00040F480206062012070BD206841692943A0
:101EC0004161002070BD00007F8F03002E2E2F4443
:101ED0007269766572732F53544D33324634787875
:101EE0005F48414C5F4472697665722F5372632F6D
:101EF00073746D3332663478785F68616C5F6361E8
:101F00006E2E63002DE9F04790F820809946164622
:101F10000D46044600688768886830B1042804D0FC
:101F200040F2E94149A006F0A5FAE86830B102287C
:101F300004D040F2EA4145A006F09CFA286908283E
:101F400004D940F2EB4141A006F094FAA8680028B9
:101F50001BD06868B0F1005F04D340F2F2413BA0AF
:101F600006F088FA287D30B1012804D040F2F4410F
:101F700036A006F07FFAB8F1010F0DD0B8F1020FCC
:101F80000AD0606A40F480205CE02868B0F5006FF9
:101F9000E8D340F2EE41E2E717F0406F01D1F800DC
:101FA0004DD5C7F30160022803D9606A40F40000F0
:101FB00048E001218140C9F80010AA684FF4C071BF
:101FC0009AB1EB681A436B6842EAC302236801EBDB
:101FD0000017DA514FF4C272276802EB00122B6926
:101FE000BB502B7D012B05D009E02B88EA6842EA23
:101FF0004352EBE723689D5845F480759D50327934
:10200000D6F805304FF4C67542EA0322236805EB83
:1020100000155A513278D6F801304FF4C47542EAAF
:102020000322236805EB00155A51226801EB0010CA
:10203000115841F0010111500020BDE8F087606A9D
:1020400040F4001060620120F7E700002E2E2F44BC
:102050007269766572732F53544D333246347878F3
:102060005F48414C5F4472697665722F5372632FEB
:1020700073746D3332663478785F68616C5F636166
:102080006E2E630070B50C4690F82010012907D021
:10209000022905D0416A41F480214162012070BDCE
:1020A00020684FF48035A84204D34FF4547163A0E4
:1020B00006F0E0F96068A84204D340F251315FA015
:1020C00006F0D8F9A068A84204D340F252315BA0D0
:1020D00006F0D0F9E068A84204D340F2533157A08B
:1020E00006F0C8F9A06930B1012804D04FF4557149
:1020F00052A006F0BFF9E06930B1012804D040F2E7
:1021000055314EA006F0B6F9206930B1012804D04F
:1021100040F2563149A006F0ADF9206A30B10128ED
:1021200004D040F2573145A006F0A4F96069514D42
:102130001B2804D940F2723140A006F09BF9606A76
:102140001B2804D940F273313CA006F093F9D5F86E
:10215000000240F00100C5F80002D5F8000220F4AA
:102160007C50C5F80002D5F80002616A40EA0120FF
:10217000C5F80002207D00F01F0101208840D5F83D
:102180001C128143C5F81C12E169B1B9D5F80C12D3
:102190008143C5F80C12A289616862F31F4162692C
:1021A00005EBC202C2F840122289216862F31F4186
:1021B000626905EBC202C2F84412E169012916D135
:1021C000D5F80C120143C5F80C122288616862F33D
:1021D0001F41626905EBC202C2F840122289E16820
:1021E00062F31F41626905EBC202C2F84412A169A1
:1021F0000029D5F804120FD051EA0001C5F80412E5
:1022000021690029D5F8141208D00143C5F8141229
:10221000216A012904D008E08143EFE78143F5E713
:10222000D5F81C120143C5F81C12D5F8000220F0A5
:102230000100C5F80002002070BD00002E2E2F44C2
:102240007269766572732F53544D33324634787801
:102250005F48414C5F4472697665722F5372632FF9
:1022600073746D3332663478785F68616C5F636174
:102270006E2E630000640040704700002DE9F041BD
:1022800090F820801D4617460E00044606D0012E09
:1022900004D04FF4BE613BA006F0ECF8B8F1010F9A
:1022A00006D0B8F1020F03D0606A40F480205EE0EF
:1022B0002068002E56D00069800755D04FF4D870A2
:1022C000216800EB0610095811F00401B96021687B
:1022D00009584FD0C90879602168085800F00200F9
:1022E000F8604FF4DA70216800EB0610095801F02D
:1022F0000F01396121680958C1F30721B9612168CB
:102300000858000C78614FF4DC70216800EB06106F
:102310000958297021680958090A69702168095803
:10232000090CA97021680858000EE8704FF4DE709F
:10233000216800EB06100958297121680958090A1B
:10234000697121680958090CA97121680858000EA3
:10235000E87120688EB1016941F02001016100201F
:10236000BDE8F081C068A7E7606A40F400106062D1
:102370000120F5E7490D3960AEE7C16841F0200161
:10238000C160ECE72E2E2F447269766572732F536D
:10239000544D3332463478785F48414C5F4472691B
:1023A0007665722F5372632F73746D33326634788F
:1023B000785F68616C5F63616E2E63002DE9F05F8A
:1023C0000546006800244669D0F804908768D0F874
:1023D0000CB0D0F810A0D0F81880F10748D0F90759
:1023E00014D001218160B80703D5284600F027FBEF
:1023F0000CE0780702D54FF4006407E0380702D5F7
:102400004FF4805402E0284600F018FBF80516D57A
:1024100029684FF480708860B80503D5284600F01D
:1024200010FB0CE0780502D544F4005407E03805B1
:1024300002D544F4804402E0284600F001FBF80392
:1024400016D529684FF480308860B80303D5284634
:1024500000F0F9FA0CE0780302D544F4004407E0F8
:10246000380302D544F4803402E0284600F0EAFA4A
:10247000300707D55FEACB6004D52968102044F403
:102480000074C86070074FF0080707D55FEA0B704B
:1024900004D52868C760284600F07AFAB00706D548
:1024A0002868C068800702D0284600F073FA7006DA
:1024B00007D55FEACA6004D52968102044F4806417
:1024C0000861B00607D55FEA0A7004D5286807617D
:1024D000284600F083FAF00606D5286800698007D0
:1024E00002D0284600F07BFAB00308D55FEAC96045
:1024F00005D5296810204860284600F071FAF003DD
:1025000007D55FEA097004D528684760284600F0BF
:102510009BFA300446D55FEA497040D5F00504D5F2
:102520005FEAC87001D044F00104B00504D55FEA49
:10253000887001D544F00204700504D55FEA487044
:1025400001D544F00404300529D518F0700F26D0C9
:1025500008F07000402815D006DC102809D020288B
:102560000AD0302816D10AE050280ED0602811D1A8
:102570000EE044F008040DE044F010040AE044F0DA
:10258000200407E044F0400404E044F0800401E04B
:1025900044F480742868816921F0700181612968A0
:1025A00004204860002C05D0686A204368622846F1
:1025B000FFF762FEBDE8F09F70B504007ED0A4492D
:1025C0002068884207D0A349884204D040F21D11F8
:1025D000A1A005F04FFF207E30B1012804D04FF4B8
:1025E0008F719DA005F046FF607E30B1012804D0B8
:1025F00040F21F1198A005F03DFFA07E30B10128E8
:1026000004D04FF4907194A005F034FFE07E30B117
:10261000012804D040F221118FA005F02BFF207F6C
:1026200030B1012804D04FF491718BA005F022FF46
:10263000607F30B1012804D040F2231186A005F05C
:1026400019FFA06868B1B0F1804F0AD0B0F1004F17
:1026500007D0B0F1404F04D04FF492717EA005F046
:1026600009FFE06868B1B0F1807F0AD0B0F1007F67
:1026700007D0B0F1407F04D040F2251176A005F0DC
:10268000F9FE206998B3B0F5803F30D0B0F5003F37
:102690002DD0B0F5403F2AD0B0F5802F27D0B0F52F
:1026A000A02F24D0B0F5C02F21D0B0F5E02F1ED040
:1026B000B0F5002F1BD0B0F5102F00E041E016D090
:1026C000B0F5202F13D0B0F5302F10D0B0F5402F3B
:1026D0000DD0B0F5502F0AD0B0F5602F07D0B0F56F
:1026E000702F04D04FF493715BA005F0C3FE6069B6
:1026F000C8B1B0F5801F16D0B0F5001F13D0B0F5EB
:10270000401F10D0B0F5800F0DD0B0F5A00F0AD04B
:10271000B0F5C00F07D0B0F5E00F04D040F227119C
:102720004DA005F0A7FE6068401EB0F5806F04D391
:102730004FF4947148A005F09DFE94F8200010B16C
:1027400004E0012070BD204600F0A2F82068016876
:1027500041F00101016000F0BDFB0546052604E0E3
:1027600000F0B8FB401B0A2811D820684068C00759
:10277000F6D02068016821F00201016000F0AAFB98
:1027800005460BE000F0A6FB401B0A2806D9606A4C
:1027900040F40030606284F82060D2E7206840682E
:1027A0008007EFD4207E0128206801683DD021F009
:1027B00080010160607E01282068016838D021F026
:1027C00040010160A07E01282068016833D021F01B
:1027D00020010160E07E0128206801682ED041F0D0
:1027E00010010160207F01282068016829D021F0B4
:1027F00008010160607F01282068016824D021F071
:1028000004010160D4E902010843D4E90412114330
:1028100008436168491E08432168C861002060625E
:10282000012084F82000002070BD41F08001C0E745
:1028300041F04001C5E741F02001CAE721F0100155
:10284000CFE741F00801D4E741F00401D9E70000E7
:1028500000640040006800402E2E2F4472697665A7
:1028600072732F53544D3332463478785F48414C5D
:102870005F4472697665722F5372632F73746D3380
:1028800032663478785F68616C5F63616E2E6300D6
:10289000F0B587B0044614216846FDF74BFE374B70
:1028A0003748DFF8D4E01968D4F800C0344A02256C
:1028B0000326092710300024491CF44524D119604F
:1028C000012907D1016841F000710160006800F042
:1028D00000700590106840F001001060106802ABB5
:1028E00000F0010005904FF4C050CDE9000583E8E9
:1028F000D0006946234800F011F900221146142047
:1029000000F0AAFB142033E0DFF87CE0F44531D17D
:10291000D0F800C04CF0806CC0F800C0D0F800C007
:1029200001290CF0806CCDF814C0196007D1016842
:1029300041F000710160006800F0007005901068BF
:1029400040F002001060106802AB00F00200059039
:102950004FF44050CDE9000583E8D00069460B48AC
:1029600000F0DCF800221146412000F075FB412008
:1029700000F040FB07B0F0BD0064004010000020F4
:10298000303802400000024000680040000402406D
:102990007047000010B504460D48844207D101215C
:1029A0000C48FEF79DFB01210A4803F06FFC0A4822
:1029B00084420BD1074802211030FEF791FB0548F5
:1029C0000221BDE81040103003F060BC10BD0000D3
:1029D000C401002080390020EC01002070477047BE
:1029E0007047000070B5044690F82000012804D01C
:1029F000606A40F40020606218E0022084F8200041
:102A00002068016821F00101016000F063FA0546C9
:102A10000EE000BF00F05EFA401B0A2808D9606A89
:102A200040F400306062052084F82000012070BD71
:102A300020684068C007EDD1606270BD7047704784
:102A4000704770477047704770472DE9F041044662
:102A5000876D00F03FFA064694F8350000250228FD
:102A600006D08020606584F834500120BDE8F081F4
:102A70002068016821F0160101602068416921F099
:102A800080014161206C08B9A06C20B12068016808
:102A900021F0080101602068016821F00101016056
:102AA0000CE000F017FA801B052807D9202060658C
:102AB000032084F8350084F83450D7E72068006894
:102AC000C007EED194F85C103F208840B860012028
:102AD00084F8350084F834500020C7E790F83510AA
:102AE000022903D08021416501207047052180F82B
:102AF00035100068016821F0010101600020704775
:102B000070470000044910B50A68024202D008600C
:102B1000FFF7F6FF10BD0000143C01402DE9F84F0F
:102B2000DFF880B20D46044658451BD09E488442CB
:102B300018D09E48844215D09D48844212D09D48AA
:102B400084420FD09C4884420CD09C48844209D0D7
:102B50009B48844206D09B48844203D0AC219AA073
:102B600005F088FC28680104090C01D0000C03D092
:102B7000AD2195A005F07EFC6868F8B101281DD054
:102B800011281BD0022819D0122817D0B0F5881FA1
:102B900014D0B0F5041F11D0B0F5441F0ED0B0F51D
:102BA000901F0BD0B0F5081F08D0B0F5481F05D016
:102BB000032803D0AE2184A005F05CFC00264FF072
:102BC000010A4FF0030900BF0AFA06F02F68804699
:102BD000074047457DD1287900F00300012801D046
:102BE00002281DD1E86848B1012807D0022805D085
:102BF000032803D0C02174A005F03CFCA06872003B
:102C000009FA02F18843E96891400143A1606068D4
:102C1000297920EA0800C1F30011B1400143616045
:102C20002879C043800712D0A86838B1012805D0A0
:102C3000022803D0D12164A005F01CFCE0687200DA
:102C400009FA02F18843A96891400143E1602879BB
:102C500000F0030002282AD12869D8B1092819D028
:102C6000012817D0022815D0032813D0042811D02A
:102C700005280FD006280DD007280BD0082809D02A
:102C80000A2807D00C2805D00F2803D0DE214EA03B
:102C900005F0F0FBF00804EB8002106A7107CB0E20
:102CA0000F219940884329699940014311622068A6
:102CB000720009FA02F18843297901F00301914079
:102CC00001432160686810F4403F64D04D480168BA
:102CD00000E060E041F480410160006826F00301FB
:102CE00000F48040009048480A18D2F80808B1075C
:102CF0000B0F0F21994088435C4501D1002123E04F
:102D000029498C4201D101211EE028498C4201D180
:102D1000022119E026498C4201D1032114E0254902
:102D20008C4201D104210FE023498C4201D10521BD
:102D30000AE022498C4201D1062105E020498C425B
:102D400001D1072100E0082199400143C2F8081889
:102D50002E4908686A68B843D20200D53843086033
:102D60002A49091D08686A68B843920200D53843A9
:102D700008602649091F08686A68B843920300D5AD
:102D8000384308602149083908686A68B843D203A3
:102D900000D538430860761C102EFFF415AFBDE84F
:102DA000F88F0000000002400004024000080240CA
:102DB000000C0240001002400014024000180240C3
:102DC000001C0240002002402E2E2F4472697665BE
:102DD00072732F53544D3332463478785F48414CE8
:102DE0005F4472697665722F5372632F73746D330B
:102DF00032663478785F68616C5F6770696F2E63E4
:102E0000000000004438024000300140083C01400E
:102E100070B50C00054604D14FF4BE7103A005F057
:102E200029FB2869204000D0012070BD2E2E2F44A0
:102E30007269766572732F53544D33324634787805
:102E40005F48414C5F4472697665722F5372632FFD
:102E500073746D3332663478785F68616C5F677065
:102E6000696F2E630000000070B515460C00064621
:102E700004D140F29D1108A005F0FCFA45B1012DE6
:102E800004D04FF4CF7104A005F0F4FAB46170BD22
:102E90002004B06170BD00002E2E2F44726976654B
:102EA00072732F53544D3332463478785F48414C17
:102EB0005F4472697665722F5372632F73746D333A
:102EC00032663478785F68616C5F6770696F2E6313
:102ED00000000000014880687047000018000020D2
:102EE0000248816802781144816070471800002010
:102EF0000B4810B5016841F400710160016841F4AC
:102F000080610160016841F480710160032000F07C
:102F1000F3F80F2000F006F800F050F8002010BD84
:102F2000003C024030B505461F4887B000240168C8
:102F300041F020010160006806A900F02000009027
:102F400001A800F03FFA0498A8B100F05BFA400035
:102F50001649174AB0FBF1F11648491E026040F2CB
:102F6000E732C0E90324C0E90114846101F03AF8B2
:102F7000040003D015E000F045FAE9E70D4801F040
:102F800035F904000DD1372000F034F8102D07D2A8
:102F900000222946372000F05FF80748056000E06E
:102FA000012407B0204630BD4038024040420F00A7
:102FB00000140040400500201C0000200C4882B096
:102FC000016841F480410160006800F48040009095
:102FD0000748001F016841F080510160006800222D
:102FE00000F0805000900F21901E02B000F034B825
:102FF0004438024010B5040003D5BC2107A005F0F9
:1030000039FA002C09DB04F01F0101208840610916
:10301000890001F1E021C1F8000110BD2E2E2F44DE
:103020007269766572732F53544D33324634787813
:103030005F48414C5F4472697665722F5372632F0B
:1030400073746D3332663478785F68616C5F636F78
:10305000727465782E63000070B515460C460646FE
:10306000102A03D3A82114A005F004FA102C03D3CE
:10307000A92111A005F0FEF91E480068C0F3022343
:10308000C3F107022046042A00D90422191D07298A
:1030900001D2002300E0DB1E012404FA02F1491EE4
:1030A000014099409C40641E2C4021433046BDE8BD
:1030B000704004F038BD00002E2E2F4472697665F2
:1030C00072732F53544D3332463478785F48414CF5
:1030D0005F4472697665722F5372632F73746D3318
:1030E00032663478785F68616C5F636F727465789C
:1030F0002E6300000CED00E010B5044607280BD04D
:10310000062C09D0052C07D0042C05D0032C03D0A5
:10311000902108A005F0AEF9154904F007020868EF
:103120004FF6FF03184040EA0220124A104308609D
:1031300010BD00002E2E2F447269766572732F53D6
:10314000544D3332463478785F48414C5F4472695D
:103150007665722F5372632F73746D3332663478D1
:10316000785F68616C5F636F727465782E630000CE
:103170000CED00E00000FA052DE9F0470E460400D2
:103180007DD02068401E0E2804D940F25A217AA032
:1031900005F070F996B1012E10D0022E0ED0032E3C
:1031A0000CD0042E0AD0052E08D0062E06D0072EED
:1031B00004D040F25B2170A005F05CF9DFF8F081EB
:1031C000D8F80000F7B200F00700B04207D288F844
:1031D0000070D8F8000000F00700B0424FD120681E
:1031E000744D810729D5400703D5286840F4E05085
:1031F00028602078000703D5286840F460402860E4
:10320000A068A0B1802812D0902810D0A0280ED09D
:10321000B0280CD0C0280AD0D02808D0E02806D08A
:10322000F02804D040F27E2153A005F023F928684D
:10323000A16820F0F000084328602078C00743D040
:10324000DFF870916068A9F1080988B1012822D0DF
:10325000022824D0032822D040F2852146A005F080
:1032600009F96068012816D0022818D0032816D062
:10327000D9F800008007002833DA286800E030E041
:10328000616820F0030008432860FFF723FE8146B1
:1032900041F2883A11E0D9F800008003EBE7D9F851
:1032A00000008001E7E700BFFFF714FEA0EB090173
:1032B000514502D90320BDE8F0872868616800F015
:1032C0000C00B0EB810FEFD1D8F80010404601F0B0
:1032D0000701B14207D90770006800F00700B0424B
:1032E00001D00120E7E720784FF4805640074FF4E3
:1032F000A0574FF4C0584FF4E05914D5E06860B1BE
:10330000B0420AD0B84208D0404506D0484504D063
:1033100040F2C32118A005F0ADF82868E16820F458
:10332000E050084328602078000715D5206960B177
:10333000B0420AD0B84208D0404506D0484504D033
:1033400040F2CA210CA005F095F82868216920F404
:10335000604040EAC100286000F074F82968164A0D
:10336000C1F30311515CC840144908601448006857
:10337000FFF7D8FD00209EE72E2E2F447269766558
:1033800072732F53544D3332463478785F48414C32
:103390005F4472697665722F5372632F73746D3355
:1033A00032663478785F68616C5F7263632E6300A5
:1033B000003C02400838024068AC000824000020AD
:1033C0001C0000200F2202600C4A136803F0030364
:1033D0004360136803F0F0038360136803F4E05361
:1033E000C36012684FF4E05303EAD202026104485A
:1033F000006800F0070008607047000008380240CD
:10340000003C02400448054900680968044AC1F3C9
:103410008221515CC84070472400002008380240D7
:1034200078AC00080448054900680968044AC1F3FB
:103430004231515CC84070472400002008380240E7
:1034400078AC0008154810B5006810F00C0214485C
:1034500013D04110042A0FD0082A0ED10F4C241F7C
:103460002268236802F03F025B0207D52068C0F3A0
:103470008810A0FB010106E0084610BD2168C1F3D9
:103480008811A1FB00010023FCF75EFF2168C1F356
:103490000141491C4900B0FBF1F010BD0838024061
:1034A0000024F4002DE9F84F04007DD020680F2897
:1034B00003D9E621F7A004F0DDFF2078DFF80C94B3
:1034C000C007A9F1040555D060684FF480364FF469
:1034D000A02738B1B04205D0B84203D0EB21EDA00F
:1034E00004F0C8FFF948001D0168C1F381010129FA
:1034F00008D00068C0F3810002280AD1D9F8000082
:10350000400206D52868800334D560680028CCD0F6
:1035100030E06068B04203D1286840F480300CE0AD
:10352000B842286803D140F480202860F4E720F4F2
:1035300080302860286820F480202860606860B1AE
:10354000FFF7C8FC064604E0FFF7C4FC801B6428B4
:103550007ED828688003F7D50CE0FFF7BBFC064651
:1035600005E000BFFFF7B6FC801B6428F0D8286890
:103570008003F7D42078DFF8588380074FF0000AE3
:1035800056D5E06830B1012804D040F21D11C1A029
:1035900004F070FF20691F2804D94FF48F71BDA07B
:1035A00004F068FFC94800E092E0001D016811F0D6
:1035B0000C0F08D00068C0F38100022810D1D9F8A0
:1035C000000040020CD42868800702D5E06801287A
:1035D0007ED12868216920F0F80040EAC10017E098
:1035E000E068B8B10120C8F80000FFF773FC064698
:1035F00005E000BFFFF76EFC801B0228A8D82868F2
:103600008007F7D5286820F0F801206941EAC0005A
:1036100028600DE0C8F800A0FFF75CFC064604E057
:10362000FFF758FC801B022892D828688007F7D43F
:10363000207800072ED5A54EA64F60697036D0B110
:10364000012808D04FF4AF7192A004F013FF00E0FE
:103650004BE1606978B101203860FFF73BFC074619
:1036600005E000BFFFF736FCC01B0228C6D8306853
:103670008007F7D50EE0C7F800A0FFF72BFC074640
:1036800005E000BFFFF726FCC01B0228B6D8306853
:103690008007F7D42078400776D5A068002740B18E
:1036A000012806D0052804D04FF4C57179A004F094
:1036B000E1FEDFF818B20BF13C0BDBF80000C000B4
:1036C0000DD4DBF8001041F08051CBF8001000E081
:1036D00038E1DBF80000012700F0805000907E4EBA
:1036E0003068C00511D4306840F480703060FFF756
:1036F000F1FB009006E000BFFFF7ECFB0099401AD9
:10370000022891D83068C005F6D5704EA0686C3696
:1037100001280FD00528306810D020F0010030605B
:10372000306820F004003060A068B8B1FFF7D2FB29
:1037300000900FE0306840F00100F4E740F0040032
:103740003060F7E7FFF7C6FB0099411A41F2883075
:1037500081428BD830688007F4D50EE0FFF7BAFBC2
:10376000009007E0FFF7B6FB0099411A41F288305C
:1037700081428BD830688007F4D42FB1DBF8001079
:1037800021F08051CBF80010A069002876D00128E4
:1037900009D0022807D040F2CD113EA004F06AFE05
:1037A000A0690028F2D04948001D0068C0F38100DC
:1037B0000228A0696DD0022805D0C8F860A0FFF7E4
:1037C00089FB044694E0E06938B1B0F5800F04D07D
:1037D0004FF4EB712FA004F04DFE206A3F2804D96E
:1037E00040F2D7112BA004F045FE606A3238B0F5E4
:1037F000BF7F04D94FF4EC7126A004F03BFEA06A11
:1038000002280AD0042808D0062806D0082804D0A8
:1038100040F2D9111FA004F02DFEE06A801E0D2891
:1038200004D94FF4ED711BA004F024FE4746C8F8FC
:1038300060A0FFF74FFB064605E000BFFFF74AFB1D
:10384000801B022851D828688001F7D4D4E90701E9
:103850000843A16A214A490802EB0141626A41EA30
:103860008211084394F82C1040EA0161C9F8001055
:1038700001203866FFF72EFB044606E064E000BF37
:10388000FFF728FB001B02282FD828688001F7D5F6
:103890005AE031E02E2E2F447269766572732F53F1
:1038A000544D3332463478785F48414C5F447269F6
:1038B0007665722F5372632F73746D33326634786A
:1038C000785F68616C5F7263632E63000438024046
:1038D00000004742800E4742007000400000FFFF9A
:1038E000FFF7F8FA001B022802D90320BDE8F88F81
:1038F00028688001F4D427E00128F7D0D9F8000027
:10390000E26900F4800191421CD1226A00F03F017B
:10391000914217D147F6C071626A0140B1EB821F34
:1039200010D1A26A4FF0FF3300F4403103EB520292
:10393000B1EB024F06D194F82C1000F07060B0EBA0
:10394000016F01D00120D1E70020CFE770B504005E
:103950007ED08049206888420AD07F49884207D0BB
:103960007E49884204D04FF4A0717DA004F082FD0E
:1039700060684FF4827630B1B04204D040F2411119
:1039800077A004F077FDA06850B1B0F5806F07D044
:10399000B0F5004F04D04FF4A17171A004F06AFD9E
:1039A000E068B0F5006F05D020B140F243116CA083
:1039B00004F060FDA069B0F5007F08D038B1B0F523
:1039C000802F04D04FF4A27165A004F053FDE0698C
:1039D00090B1082810D010280ED018280CD020281C
:1039E0000AD0282808D0302806D0382804D040F241
:1039F00045115BA004F03EFD206A30B1802804D060
:103A00004FF4A37156A004F035FD606A002548B359
:103A1000102806D040F2471151A004F02BFD606A37
:103A200000B3E06990B1082810D010280ED01828F3
:103A30000CD020280AD0282808D0302806D03828D2
:103A400004D040F2591146A004F014FD256100E0B5
:103A500006E06561A56294F85100002830D034E09A
:103A6000012070BD206930B1022804D04FF4A57147
:103A70003BA004F0FFFC606930B1012804D040F2A3
:103A80004B1137A004F0F6FC6068B04216D1E06933
:103A90000028DFD00828DDD01028DBD01828D9D0A6
:103AA0002028D7D02828D5D03028D3D03828D1D036
:103AB00040F24F112AA004F0DDFCCBE7E561C9E735
:103AC00084F85050204600F067F8022084F8510036
:103AD0002068016821F040010160A088218900F47C
:103AE000827001F404410843A18901F40061084394
:103AF000217C01F002010843217D01F0010108430E
:103B0000218B01F400710843217F01F03801084343
:103B100094F8201001F080010843218D01F4005138
:103B2000084321680860A069042101EA104094F864
:103B3000241001F010010843216848602068C16921
:103B400021F40061C1616565012084F85100002005
:103B500070BD00000030014000380040003C0040D3
:103B60002E2E2F447269766572732F53544D333263
:103B7000463478785F48414C5F4472697665722FAD
:103B80005372632F73746D3332663478785F686173
:103B90006C5F7370692E6300F0B587B00446142122
:103BA0006846FCF7C7FC2A4A2168002429480225F8
:103BB00003260527914217D1264914310A6842F499
:103BC00080520A60096801F480510591016841F052
:103BD000010101600068694600F001000590E020E5
:103BE000CDE900051C482CE01C4A91422ED1194910
:103BF00010310A6842F480420A60096801F4804189
:103C00000591016841F004010160016801F00401BF
:103C10000591016841F002010160006802AA00F00C
:103C2000020005900C20CDE9000582E8D00069462D
:103C30000B48FEF773FF4FF48060CDE9000509489B
:103C4000694602AA82E8D000FEF768FF07B0F0BD1F
:103C5000003001403038024000000240003800408F
:103C600000080240000402402DE9F84F04460A9E75
:103C700080681D4692468B464FF00109002720B10F
:103C800040F27C4174A004F0F5FB94F85000012848
:103C90000ED0012084F85000FFF71CF9804694F8FC
:103CA0005100616801280CD0B1F5827F07D102E094
:103CB0000220BDE8F88FA16809B9042801D00227C5
:103CC000C2E0BBF1000F27D0BAF1000F24D01DB322
:103CD00094F85100042802D0052084F851000020F7
:103CE0006065C4F838A0E587A587C4F830B0E586DC
:103CF000A5862064606420680168490603D40168D1
:103D000041F040010160E068B0F5006F606805D0E7
:103D1000F0B3012D46D07FE0012795E008B1012DD9
:103D200039D1206B21680088C860206B801C20631B
:103D3000E08E401EE0862EE02068816889070FD55E
:103D4000E18E69B1B9F1010F0AD1216B0988C16017
:103D5000206B801C2063E08E401EE0864FF000093F
:103D600020688168C9070CD0E18F51B1C068A16B90
:103D70000880A06B801CA063E08F401EE0874FF09E
:103D80000109FFF7A7F8A0EB0800B04203D300E059
:103D900008E0701C50D1E08E0028CDD1E08F0028C3
:103DA000CAD13FE0206B216800780873206B401C6B
:103DB0002063E08E401EE0862EE02068816889073F
:103DC0000FD5E18E69B1B9F1010F0AD1216B0978E4
:103DD0000173206B401C2063E08E401EE0864FF094
:103DE000000920688168C9070CD0E18F51B1C06813
:103DF000A16B0870A06B401CA063E08F401EE087A1
:103E00004FF00109FFF766F8A0EB0800B04202D3BB
:103E1000701C01D010E07EB1E08E0028CDD1E08F83
:103E20000028CAD142463146204602F0F3FD28B1AF
:103E300001272020606507E0032705E0A06818B986
:103E40002068C16880680090012084F8510000203B
:103E500084F8500038462CE72E2E2F447269766580
:103E600072732F53544D3332463478785F48414C47
:103E70005F4472697665722F5372632F73746D336A
:103E800032663478785F68616C5F7370692E6300A6
:103E9000704770472DE9F05F044600683A4E3B4F8B
:103EA000DFF8EC80DFF8EC90DFF8ECA00D464FF087
:103EB000804BB04215D0584513D0B84211D0404580
:103EC0000FD048450DD04FEAB641884209D033495A
:103ED000884206D0504504D040F2B17130A004F0C1
:103EE000C9FA286890B1102810D020280ED03028A8
:103EF0000CD040280AD0502808D0602806D070285E
:103F000004D040F2B27126A004F0B4FA68688028A8
:103F100005D020B140F2B37121A004F0ABFA94F8BF
:103F20003C0001282DD0012284F83C20022084F896
:103F30003D00216848688B6820F0700C286840EAD2
:103F40000C0048602068B0420FD058450DD0B842F0
:103F50000BD0404509D0484507D0504505D01F49F2
:103F6000884202D01E49884204D1696823F0800348
:103F70001943816084F83D20002084F83C00BDE8AE
:103F8000F09F0220FBE70000000001400004004019
:103F900000080040000C00400004014000140040F4
:103FA0002E2E2F447269766572732F53544D33321F
:103FB000463478785F48414C5F4472697665722F69
:103FC0005372632F73746D3332663478785F68612F
:103FD0006C5F74696D5F65782E630000004001407E
:103FE0000018004010B5040058D03F4920688842AE
:103FF0002BD0B0F1804F28D03C49884225D03C4995
:10400000884222D03B4988421FD03B4988421CD07D
:104010003A49884219D03A49884216D039498842EB
:1040200013D03949884210D0384988420DD03849D8
:1040300088420AD03749884207D03749884204D09D
:1040400040F2131135A004F015FAA06860B11028F1
:104050000AD0202808D0402806D0602804D04FF489
:104060008A712EA004F006FA206950B1B0F5807F65
:1040700007D0B0F5007F04D040F2151127A004F05E
:10408000F9F9A06930B1802804D04FF48B7123A0D6
:1040900004F0F0F994F83D0010B107E0012010BDE4
:1040A000002084F83C00204600F054F8022084F8F8
:1040B0003D00211D206802F065FE012084F84600C5
:1040C00084F83E0084F83F0084F8400084F8410002
:1040D00084F8420084F8430084F8440084F84500E2
:1040E00084F83D00002010BD0000014000040040A5
:1040F00000080040000C0040001000400014004088
:1041000000040140004001400044014000480140DB
:1041100000180040001C0040002000402E2E2F44BC
:104120007269766572732F53544D33324634787802
:104130005F48414C5F4472697665722F5372632FFA
:1041400073746D3332663478785F68616C5F74695C
:104150006D2E630008B501682048B1F1804F11D081
:104160001F4A914216D1016841F0080101600068C0
:10417000002200F00800009002213220FEF76CFFC0
:10418000322026E0016841F001010160006800F082
:10419000010009E0134A914208D1016841F0100181
:1041A0000160006800F01000009008BD0E488142D8
:1041B000FBD10A48001D016841F40031016000682C
:1041C000002200F40030009002211920FEF744FF85
:1041D0001920BDE80840FEF70DBF0000403802403E
:1041E000000C004000100040004401402DE9F05F49
:1041F000044600682F4D304E304FDFF8C480DFF8A2
:10420000C490DFF8C4A0DFF8C4B0A84226D0B0F153
:10421000804F23D0B04221D0B8421FD040451DD09E
:104220004FEAB541884219D02949884216D04845FD
:1042300014D0504512D0274988420FD026498842D1
:104240000CD058450AD02549884207D024498842D5
:1042500004D040F2CF1123A004F00CF994F83D00F3
:10426000012802D00120BDE8F09F022084F83D0023
:104270002068C16841F00101C1602068A8420ED0E9
:10428000B0F1804F0BD0B04209D0B84207D04045C2
:1042900005D0484503D0504501D0584504D1816828
:1042A00001F00701062903D0016841F00101016016
:1042B0000020D8E700000140000400400008004052
:1042C000000C004000040140004001400018004084
:1042D000001400400044014000480140001C004020
:1042E000002000402E2E2F447269766572732F5382
:1042F000544D3332463478785F48414C5F4472699C
:104300007665722F5372632F73746D33326634780F
:10431000785F68616C5F74696D2E63002DE9F84FFA
:1043200005460020009095F83C000C46012841D03D
:10433000012085F83C00022085F83D0020684FF4FC
:10434000805B584516D0702814D0B0F5005F11D0AE
:1043500040280FD050280DD060280BD050B1102825
:1043600008D0202806D0302804D041F2B741D4A08C
:1043700004F080F82868816821F0770121F47F41FA
:1043800081602068DC49DD4ADD4BDE4EDE4FDFF820
:104390007CC3DFF87C834FF080494FF4004A5028FB
:1043A0007ED00FDC202804D007DC0028FBD01028AA
:1043B00077D161E10220BDE8F88F3028F9D040289C
:1043C000F6D126E160286DD0702874D0584544D0CD
:1043D0004FF400584045EBD1286888420ED048453C
:1043E0000CD090420AD0984208D0B04206D0B842D1
:1043F00004D041F2E241B2A004F03CF8A06858B108
:10440000584509D0404507D0B0F5405F04D041F28F
:10441000E541ABA004F02EF86068504509D040B1EA
:10442000022806D00A2804D041F2E641A4A004F0F4
:1044300021F8E0680F2804D941F2E741A0A004F078
:1044400019F8D4E90121E368286802F0FFFC286824
:10445000816841F48041816029E128688842FBD06D
:104460004845F9D09042F7D09842F5D0B042F3D009
:10447000A8498842F0D0A8498842EDD0B842EBD094
:104480006045E9D0A5498842E6D0A5498842E3D0F5
:104490004045E1D0A3498842DED0A349884203E0E9
:1044A0004FE002E180E006E0D6D041F2C34184A0B3
:1044B00003F0E0FFFBE02868884212D0484510D0A6
:1044C00090420ED098420CD0B0420AD0B84208D0E8
:1044D000604506D0404504D041F2CA4178A003F0BF
:1044E000C9FFA06860B158450AD0B0F5005F07D099
:1044F000B0F5405F04D041F2CD4171A003F0BAFFA6
:104500006068504509D040B1022806D00A2804D07E
:1045100041F2CE416AA003F0ADFFE0680F2804D954
:1045200041F2CF4166A003F0A5FFD4E90121E36881
:10453000286802F08BFC2968886840F07700886062
:10454000B5E02868884212D0484510D090420ED07D
:1045500098420CD0B0420AD0B84208D0604506D08C
:10456000404504D041F2F64155A003F083FF606856
:10457000504509D040B1022806D00A2804D041F2A3
:10458000F9414FA003F076FFE0680F2804D941F20B
:10459000FA414BA003F06EFFE2686168286802F000
:1045A00067FC5021286831E02868884212D04845CD
:1045B00010D090420ED098420CD0B0420AD0B842EF
:1045C00008D0604506D0404504D041F206513CA0D9
:1045D00003F050FF6068504509D040B1022806D072
:1045E0000A2804D041F2095135A003F043FFE068E6
:1045F0000F2804D941F20A5131A003F03BFFE268D1
:104600006168286802F045FC6021286802F028FCF7
:104610004DE02868884212D0484510D090420ED014
:1046200098420CD0B0420AD0B84208D0604506D0BB
:10463000404504D041F2165121A003F01BFF6068F1
:10464000504509D040B1022806D00A2804D041F2D2
:1046500019511BA003F00EFFE0680F2804D941F2A6
:104660001A5117A003F006FFE2686168286802F09B
:10467000FFFB40212868C9E72868884212D04845D6
:1046800010D090420ED098420CD0B0420AD0B8421E
:1046900008D0604506D0404504D041F2295108A019
:1046A00003F0E8FE21682868B0E7012000900120AF
:1046B00085F83D00002085F83C0000987BE600006E
:1046C0002E2E2F447269766572732F53544D3332F8
:1046D000463478785F48414C5F4472697665722F42
:1046E0005372632F73746D3332663478785F686108
:1046F0006C5F74696D2E630000000140000400408F
:1047000000080040000C004000040140004001404F
:104710000018004000100040001400400044014018
:1047200000480140001C0040002000402DE9F041FD
:104730000D4604007ED079492068884219D0B0F136
:10474000804F16D07649884213D07649884210D0DF
:10475000754988420DD0754988420AD0744988420B
:1047600007D07449884204D040F6D13172A003F0DA
:1047700081FEA06860B110280AD0202808D0402807
:1047800006D0602804D040F6D2316BA003F072FE50
:10479000206950B1B0F5807F07D0B0F5007F04D01C
:1047A00040F6D33164A003F065FEA06930B18028E3
:1047B00004D040F6D43160A003F05CFE28680128E4
:1047C00008D0022806D0032804D040F6D5315AA0DC
:1047D00003F050FEA868012808D0022806D003285C
:1047E00004D040F6D63154A003F044FEA869012855
:1047F00008D0022806D0032804D040F6D7314EA0B6
:1048000003F038FE686830B1022804D040F6D83191
:1048100049A003F02FFE686930B1022804D040F6A9
:10482000D93145A003F026FEE86860B104280AD01B
:10483000082800E028E006D00C2804D040F6DA3141
:104840003DA003F017FEE86950B1042808D00828FD
:1048500006D00C2804D040F6DB3137A003F00AFE66
:1048600028690F2804D940F6DC3133A003F002FE9A
:10487000286A0F2804D940F6DD312FA003F0FAFD95
:1048800094F83D0018B108E00120BDE8F081002057
:1048900084F83C00204600F06BF8022084F83D00CC
:1048A0002068816844F2070291438160211D2068DD
:1048B00002F068FA226890689169166A2B68AF69FD
:1048C000034340F203308143A86841EA07210843CB
:1048D0004FF6FC418843E969EF6840EA012007434D
:1048E0002869296A000140EA013168686D6926F08B
:1048F000AA06394346EA0515284393602268916168
:1049000054F8461B0862012004F81F09E075207660
:10491000E0762077A0750020B7E700000000014096
:104920000004004000080040000C0040000401406A
:1049300000400140001800402E2E2F447269766519
:1049400072732F53544D3332463478785F48414C5C
:104950005F4472697665722F5372632F73746D337F
:1049600032663478785F68616C5F74696D2E6300BD
:1049700070B586B0044614216846FBF7DBFD1E497E
:104980001C4E256800231C4A103902241B48B542DE
:1049900011D1156845F002051560126802F0020297
:1049A00005920A6842F002020A60096801F00201F9
:1049B0000591302113E0124EB54218D1156845F02B
:1049C00004051560126802F0040205920A6842F0BC
:1049D00002020A60096801F002010591C0210091FC
:1049E000CDE90143CDE903346946FEF797F806B0F7
:1049F00070BD000000040040403802400004024046
:104A000000080040704770B50446006801694FF027
:104A10000005C943890715D4C168C943890711D462
:104A2000E91E016101202077206880698007204607
:104A300002D0FFF7E7FF04E000F098F8204600F00E
:104A400096F8257720680169C943490717D4C168DA
:104A5000C943490713D46FF0040101610220207794
:104A60002068806910F4407F204602D0FFF7CAFF1B
:104A700004E000F07BF8204600F079F82577206804
:104A80000169C943090716D4C168C943090712D48B
:104A90006FF008010161042020772068C069800759
:104AA000204602D0FFF7AEFF04E000F05FF820469A
:104AB00000F05DF8257720680169C943C90617D45D
:104AC000C168C943C90613D46FF010010161082001
:104AD00020772068C06910F4407F204602D0FFF79D
:104AE00091FF04E000F042F8204600F040F82577FE
:104AF00020680169C943C90708D1C168C943C9070A
:104B000004D1891E0161204600F032F82068016955
:104B1000C943090609D4C168C943090605D46FF021
:104B2000800101612046FFF7B3F920680169C9439C
:104B3000490609D4C168C943490605D46FF040014C
:104B40000161204600F02CF820680169C9438906FC
:104B50000BD4C168C943890607D46FF020010161F5
:104B60002046BDE87040FFF794B970BD70477047AC
:104B700010B504460748844202D1074802F09CFD64
:104B800006492068884203D1BDE81040FEF7A8B965
:104B900010BD00009C030020C03B0020001400401A
:104BA00070477047016882B00A68D243120707D481
:104BB0000A68496800910122024902B000F064BA13
:104BC00002B0704714000020F8B501680446086878
:104BD000CA684B6910F00F0F4FF0000559D003F071
:104BE000010602F49077374365D0C10705D0D1059F
:104BF00003D5216C41F001012164410705D5D90796
:104C000003D0216C41F002012164810705D5D90749
:104C100003D0216C41F004012164010707D502F0A3
:104C20002001314303D0216C41F008012164216C43
:104C300000293AD0800604D5900602D5204602F01D
:104C4000DAFB20684069216CC0F38010090700D4AA
:104C500060B3204602F0A8FB20684069400621D5D9
:104C60002068143050E8001F21F0400140E8001295
:104C7000002AF5D1A06BA8B16C490165A06BFDF7C6
:104C80002DFF002811D0A06B016D01B0BDE8F040F0
:104C9000084783060FD593060DD52046BDE8F8409A
:104CA00002F0A9BB2046FFF77DFFF8BD2046FFF7C5
:104CB00079FF2564F8BD266B2023012E79D1C60625
:104CC00077D5D60675D508684868009048694006CB
:104CD00040D5A16B086840680004000CEAD0A28DA2
:104CE0008242E7D9E085C869B0F5807F2DD0206881
:104CF0000C3050E8001F21F4807140E80012002AB7
:104D0000F5D12068143050E8001F21F0010140E87F
:104D10000012002AF5D12068143050E8001F21F05D
:104D2000400140E80012002AF5D184F83E302563A6
:104D300020680C3050E8001F21F0100140E80012FC
:104D4000002AF5D1A06BFDF780FEA08DE18D401A01
:104D500081B229E0A08DE18D401A81B2E08D00285A
:104D6000A8D00029A6D020680C3050E8002F22F4EB
:104D7000907240E80026002EF5D12068143050E8EB
:104D8000002F22F0010240E80026002EF5D184F821
:104D90003E30256320680C3050E8002F22F01002CE
:104DA00040E80023002BF5D12046FFF7FAFEF8BDBE
:104DB000FFE705062BD5150629D594F83D002128D7
:104DC000F5D1A068B0F5805F01D12069B0B1206A4B
:104DD000411C2162216800784860E08C401E00047C
:104DE000000CE084E3D12068C16821F08001C1603B
:104DF0002068C16841F04001C160D8E7206A00889E
:104E0000C0F308004860206A801C2062E5E7400685
:104E1000CDD55006CBD5CA68204622F04002CA60E4
:104E200084F83D3000F076F9C1E70000997300087E
:104E300070B5040023D0A0693B4900283B4A3C4B95
:104E40003C4D20681DD088420CD090420AD0984238
:104E500008D0A84206D040F2731137A003F00AFB35
:104E6000A06908B3A069B0F5807F1DD0B0F5007FC0
:104E70001AD0B0F5407F17D04FF4BA7111E001207D
:104E800070BD884210D090420ED098420CD0394963
:104E9000884209D03849884206D0A84204D04FF44D
:104EA000BC7125A003F0E6FAA06838B1B0F5805FC8
:104EB00004D04FF4BD7120A003F0DCFAE06938B1F2
:104EC000B0F5004F04D040F27B111BA003F0D2FAE2
:104ED00094F83D00002520B984F83C50204600F0AD
:104EE0004DF8242084F83D002068C16821F4005169
:104EF000C160204602F0E0FA2068016921F4904187
:104F000001612068416921F02A0141612068C1687E
:104F100041F40051C1602564202084F83D0084F8EC
:104F20003E00002070BD0000001001400044004021
:104F300000480040001401402E2E2F44726976650F
:104F400072732F53544D3332463478785F48414C56
:104F50005F4472697665722F5372632F73746D3379
:104F600032663478785F68616C5F756172742E6345
:104F700000000000004C004000500040F0B587B039
:104F8000044614216846FBF7D5FA3A49DFF8E0C039
:104F90002768384A14390223012403250726364896
:104FA00067451CD1176847F010071760126802F0B8
:104FB000100205920A6842F001020A60096801F0D5
:104FC0000101059169028DE87A006946FDF7A6FDA9
:104FD000002201212520FEF73FF8252021E0DFF8FF
:104FE0009CC0674521D1234A121F176847F4003738
:104FF0001760126802F4003205920A6842F001025A
:105000000A60096801F0010105910C218DE87A0020
:105010006946FDF783FD002201212620FEF71CF8DA
:105020002620FDF7E7FF07B0F0BD15488742FAD10B
:10503000106840F020001060106800F0200005901B
:10504000086840F0040008600868694600F0040041
:105050000590C0208DE83900082004900948FDF72C
:105060005DFD002211464720FDF7F6FF4720D8E7F7
:10507000001001404438024000000240004400405B
:10508000001401400008024090F83E30202B0ED161
:1050900059B152B190F83C30012B08D0012380F86F
:1050A0003C300023036302F0D7BA0120704702208E
:1050B0007047000070B504461248134D844203D176
:1050C00000212878FCF742F81048844203D10121DE
:1050D0002878FCF73BF80E48844203D10321287856
:1050E000FCF734F800252026012207492046FFF767
:1050F000CBFF002804D084F83E6084F83C50F3E7EE
:1051000070BD00007404002014000020B8040020CA
:10511000FC0400207047FEE7094B48B14FF4004102
:10512000012809D002280AD100220648FDF79CBEBA
:1051300000224FF4804100E000221846F6E7704755
:105140000004024000000240094B48B14FF4004106
:10515000012808D0022809D101220648FDF784BEA3
:105160000122910300E001221846F7E77047000092
:1051700000040240000002404B4A90ED180AD2EDB4
:10518000020AB0EEC00A92ED031AD2ED042AD2ED63
:10519000061A92ED072AB4EEE00A5169F1EE10FA10
:1051A000126A06D201EE101A60EEA10A80ED001A12
:1051B00019E0B4EEC10AF1EE10FA04D2C0ED001A03
:1051C00061EE020A0FE0B4EEE20AF1EE10FA04D248
:1051D00080ED002ADFED350A05E000EE902AC0EDF3
:1051E000000ADFED330A3349C0ED030A324B0A6887
:1051F0009FED321A9A421CDA4968314A914218DA14
:1052000010EE102A2F498A4203DAF2EE090AC0EDA5
:10521000000A10EE102A8A4203DDDFED2B0AC0EDF2
:10522000000ADFED2A0AC0ED010AC0ED020A80ED96
:10523000031A2749DFED270ACA88032A10D110EE86
:10524000102A254B9A4203DAF1EE061AC0ED001A35
:10525000C0ED010ADFED211AC0ED020AC0ED031A0C
:10526000C9880A291FD110EE101A1B4AD2431144D3
:105270001B4A914205D2F1EE021AC0ED001A80EDF0
:10528000031A10EE101A174B1944914207D2B1EECF
:10529000040A80ED000A9FED140A80ED030AC0EDB8
:1052A000010AC0ED020A70475CAE000800803B4571
:1052B0000080BB44C03B002000803B450000E1442F
:1052C00000C0DA450000484200008C413333B33E51
:1052D0000C410020000000000000C8420000FA431A
:1052E000FFFF7F00FFFFB7BC0000FA4470B50C461B
:1052F0002DED068B0546D1ED100A91ED110A91EDC9
:10530000131ADFED491A91ED14AAD1ED15AA21EE79
:10531000218ADFED469A91ED001A31EE609AD1EDC7
:10532000010A70EEC08AB0EE480AFBF799F960EE08
:10533000288AB0EE480A00F05FFD49EE408A284610
:10534000C5ED188AFFF718FF95ED180A2846B0EE4C
:10535000C00AF1EE400AB0EE690A00F04BFF85ED9D
:10536000190AD5ED188AB0EEE80A10EE100A05F019
:10537000B7FB41EC190B18EE900A05F0B1FB53ECAA
:10538000192B04F017FF9FED2A1B53EC112B05F08E
:10539000D5F89FED291B53EC112B05F0CFF841EC0C
:1053A000190B18EE100A05F09BFB53EC192B05F0B6
:1053B000ADFA04F019FE08EE100AB0EE480AFBF749
:1053C0004FF9D5ED190A60EE208AB0EE480A00F0D8
:1053D00013FDD5ED190A3AEE289A20EE200A7AEE4E
:1053E000808A29EE090A08EEA80A02F0EDFFB0EE65
:1053F000408AF0EE490AB0EE680AFBF7EFFDDFEDF8
:10540000100A85ED0F8A002060EE200AC5ED0E0A15
:1054100004EB8001401CC1ED1C0A81ED188A0428B0
:10542000F6DBBDEC068B70BD35FA8E3C000000004B
:1054300000000060FB210940000000000000E03F88
:10544000E12E65422DE9F04304462DED028B89B033
:105450000020009001900290039004900590069027
:1054600007900D469FED2D8A204600F05BF894EDE5
:10547000030A04F11C00F1EE400AB0EE480A00F005
:10548000B9FEB0EE408A94ED040AFBF7E9F860EE4D
:10549000088A94ED040A00F0AFFC84ED168A60EEF1
:1054A000080AC5ED148ADFED1E8AC5ED150A002431
:1054B000E8460DF1100900BFD5ED140A08EB840091
:1054C00009EB8407C0ED000A95ED150AB0EE608A7D
:1054D00087ED000AFBF782FD20EE280A05EB840623
:1054E000F0EE000A86ED1C0AB0EE480A02F03AFC23
:1054F000B0EE408A97ED000AF0EE000A02F032FCAE
:1055000038EE000A02F060FF641C86ED180A042CD5
:10551000D2DB09B0BDEC028BBDE8F08300000000D7
:10552000E12E654210B504462DED048B86B01422A1
:1055300027482749F0EC019A103190EC038A68461D
:10554000FAF7BEFF94ED030AB4EEE90AF1EE10FAA1
:1055500008D29DED000A84ED070A9DED010A29EEAF
:10556000800A0CE0B4EEC80AF1EE10FA0DD29DEDFF
:10557000010A84ED070A9DED020A28EE000A84ED77
:105580000A0A06B0BDEC048B10BDB4EEE80AF1EED9
:1055900010FA08D29DED020A84ED070A9DED030A78
:1055A00028EE800AEBE7B4EEC90AF1EE10FA08D251
:1055B0009DED030A84ED070A9DED040A29EE000A19
:1055C000DDE79DED040A84ED070A9FED020AD6E7A8
:1055D00080AE000800007A44144810B59FED120A0E
:1055E00080ED000A124880ED000A124880ED000AA2
:1055F000114880ED0B0A80ED000A80ED010A74303D
:10560000FBF70CFC0D48017829B9012101700A480B
:105610004430FBF7EDFF0A490A4802F04DFFBDE8B0
:1056200010400948FEF7E2BD0000000034010020F0
:10563000380100203C010020244100207801002096
:10564000C03B0020CC4100209C03002010B510EE90
:10565000100A2DED028BB0F17E5F21D0DFED120A32
:1056600020EE208A18EE100A05F03AFA41EC100BF1
:1056700002F06AFA51EC100B04F0F4FE0B4901EB56
:10568000800191EC020A30EEC01A00EE900AF8EEAA
:10569000E00A78EE600A00EE810ABDEC028B10BDD4
:1056A0009FED030AF9E700000000C84280AC000843
:1056B000DB0F493F1FB5002116480091019102916F
:1056C000134A0391C0E9002181600161017680F8ED
:1056D00020104FF08052C26201244FF0C062C461BA
:1056E0008262C16080F830104461FCF7C9F908B1EA
:1056F000FBF737FC03200094CDE9014069460548DB
:10570000FCF700F8002801D0FBF72BFC1FBD0000C0
:10571000002001407C0100200F4810B50D490160B8
:105720000921416000214FF480328160C0E90312F9
:1057300041610176417681760122C2760177417717
:10574000FCF73AFF002803D0BDE81040FBF709BC86
:1057500010BD000000640040C40100200F4810B5D7
:105760000D4901600921416000214FF480328160C0
:10577000C0E9031241610176012242768176C27648
:1057800001774177FCF718FF002803D0BDE81040EF
:10579000FBF7E7BB10BD000000680040EC010020F3
:1057A00010B50E4A00210E4803F076F80D4C0B4A56
:1057B0000021206024320C4803F06EF8074A606034
:1057C00048320021094803F067F8044AA0606C32AF
:1057D0000021074803F060F8E06010BDD8AB000876
:1057E000A16C000800000020F96F0008B96E0008E5
:1057F000057000082DE9F04186B014216846FAF7DB
:1058000099FE3E480025016841F080010160016871
:1058100001F080010591016841F004010160016817
:1058200001F004010591016841F001010160016886
:1058300001F001010591016841F002010160006879
:105840002F4F00F002000590012210213846FDF78D
:105850000BFBDFF8B08000224CF60F014046FDF74D
:1058600003FB4FF40046002231463846FDF7FCFAB0
:1058700010200124CDE900040320CDE9024069464F
:105880003846FDF74BF92020CDE900056946029422
:105890001D48FDF743F94CF207008DE831006946D9
:1058A00040460395FDF73AF940F60800CDE90004BB
:1058B00069464046CDE90245FDF730F90096CDE94D
:1058C0000145694638460395FDF728F94FF44070C5
:1058D00000904FF4881001900220029069464046E3
:1058E000FDF71CF9002204211720FDF7B5FB172056
:1058F000FDF780FB06B0BDE8F081000030380240C3
:10590000000002400004024000080240104810B5A8
:105910000E4901604FF482714160002181600122D3
:10592000C160C0E90412520282612822C0E9072145
:10593000416281620A21C162FEF708F8002803D0A3
:10594000BDE81040FBF70DBB10BD0000003001406A
:1059500014020020104810B50E4901604FF4827106
:105960004160002181600122C160C0E9041252023D
:1059700082612822C0E90721416281620A21C16255
:10598000FDF7E4FF002803D0BDE81040FBF7E9BABB
:1059900010BD0000003800406C0200200B4810B51C
:1059A0000949016023214160002142F21072C0E9DF
:1059B000021201618161FEF715FB002803D0BDE8EA
:1059C0001040FBF7CEBA10BD004401402C0400206B
:1059D00010B586B0002416480094019402940394F4
:1059E00004944FF08041059401602321C0E9011423
:1059F0006321C0E903148461FEF7F4FA08B1FBF7F0
:105A0000B0FA4FF48050009069460948FEF786FCD2
:105A100008B1FBF7A6FA2020CDE9040404A9044844
:105A2000FEF738FA002801D0FBF79BFA06B010BD4C
:105A3000C402002010B58CB024216846FAF77AFD24
:105A400000241648099414490A94C0E900144FF63A
:105A5000FF71C0E90241046184610320CDE90004C3
:105A60000120CDE902040494CDE90540079469467C
:105A70000A480894FEF75AFE08B1FBF772FA099437
:105A800009A906480A94FEF705FA002801D0FBF799
:105A900068FA0CB010BD0000000400400C030020A8
:105AA00010B58CB024216846FAF744FD002416484E
:105AB000099414490A94C0E900144FF6FF71C0E933
:105AC0000241046184610320CDE900040120CDE995
:105AD00002040494CDE90540079469460A480894F5
